{
  "_format": "hh-sol-artifact-1",
  "contractName": "LandRegistry",
  "sourceName": "contracts/LandRegistry.sol",
  "abi": [
    {
      "inputs": [],
      "stateMutability": "nonpayable",
      "type": "constructor"
    },
    {
      "inputs": [
        {
          "internalType": "string",
          "name": "name",
          "type": "string"
        },
        {
          "internalType": "string",
          "name": "phoneNumber",
          "type": "string"
        },
        {
          "internalType": "string",
          "name": "LandName",
          "type": "string"
        }
      ],
      "name": "buyLand",
      "outputs": [],
      "stateMutability": "payable",
      "type": "function"
    },
    {
      "inputs": [],
      "name": "getMemos",
      "outputs": [
        {
          "components": [
            {
              "internalType": "string",
              "name": "name",
              "type": "string"
            },
            {
              "internalType": "string",
              "name": "phoneNumber",
              "type": "string"
            },
            {
              "internalType": "string",
              "name": "LandName",
              "type": "string"
            },
            {
              "internalType": "uint256",
              "name": "timestamp",
              "type": "uint256"
            },
            {
              "internalType": "address",
              "name": "from",
              "type": "address"
            }
          ],
          "internalType": "struct LandRegistry.Memo[]",
          "name": "",
          "type": "tuple[]"
        }
      ],
      "stateMutability": "view",
      "type": "function"
    }
  ],
  "bytecode": "0x608060405234801561001057600080fd5b5033600160006101000a81548173ffffffffffffffffffffffffffffffffffffffff021916908373ffffffffffffffffffffffffffffffffffffffff160217905550610c6b806100616000396000f3fe6080604052600436106100295760003560e01c8063865c51721461002e578063da1ff24514610059575b600080fd5b34801561003a57600080fd5b50610043610075565b60405161005091906106c8565b60405180910390f35b610073600480360381019061006e9190610833565b6102ea565b005b60606000805480602002602001604051908101604052809291908181526020016000905b828210156102e157838290600052602060002090600502016040518060a00160405290816000820180546100cc90610909565b80601f01602080910402602001604051908101604052809291908181526020018280546100f890610909565b80156101455780601f1061011a57610100808354040283529160200191610145565b820191906000526020600020905b81548152906001019060200180831161012857829003601f168201915b5050505050815260200160018201805461015e90610909565b80601f016020809104026020016040519081016040528092919081815260200182805461018a90610909565b80156101d75780601f106101ac576101008083540402835291602001916101d7565b820191906000526020600020905b8154815290600101906020018083116101ba57829003601f168201915b505050505081526020016002820180546101f090610909565b80601f016020809104026020016040519081016040528092919081815260200182805461021c90610909565b80156102695780601f1061023e57610100808354040283529160200191610269565b820191906000526020600020905b81548152906001019060200180831161024c57829003601f168201915b50505050508152602001600382015481526020016004820160009054906101000a900473ffffffffffffffffffffffffffffffffffffffff1673ffffffffffffffffffffffffffffffffffffffff1673ffffffffffffffffffffffffffffffffffffffff168152505081526020019060010190610099565b50505050905090565b6000341161032d576040517f08c379a000000000000000000000000000000000000000000000000000000000815260040161032490610997565b60405180910390fd5b600160009054906101000a900473ffffffffffffffffffffffffffffffffffffffff1673ffffffffffffffffffffffffffffffffffffffff166108fc349081150290604051600060405180830381858888f19350505050158015610395573d6000803e3d6000fd5b5060006040518060a001604052808581526020018481526020018381526020014281526020013373ffffffffffffffffffffffffffffffffffffffff16815250908060018154018082558091505060019003906000526020600020906005020160009091909190915060008201518160000190816104139190610b63565b5060208201518160010190816104299190610b63565b50604082015181600201908161043f9190610b63565b506060820151816003015560808201518160040160006101000a81548173ffffffffffffffffffffffffffffffffffffffff021916908373ffffffffffffffffffffffffffffffffffffffff1602179055505050505050565b600081519050919050565b600082825260208201905092915050565b6000819050602082019050919050565b600081519050919050565b600082825260208201905092915050565b60005b838110156104fe5780820151818401526020810190506104e3565b60008484015250505050565b6000601f19601f8301169050919050565b6000610526826104c4565b61053081856104cf565b93506105408185602086016104e0565b6105498161050a565b840191505092915050565b6000819050919050565b61056781610554565b82525050565b600073ffffffffffffffffffffffffffffffffffffffff82169050919050565b60006105988261056d565b9050919050565b6105a88161058d565b82525050565b600060a08301600083015184820360008601526105cb828261051b565b915050602083015184820360208601526105e5828261051b565b915050604083015184820360408601526105ff828261051b565b9150506060830151610614606086018261055e565b506080830151610627608086018261059f565b508091505092915050565b600061063e83836105ae565b905092915050565b6000602082019050919050565b600061065e82610498565b61066881856104a3565b93508360208202850161067a856104b4565b8060005b858110156106b657848403895281516106978582610632565b94506106a283610646565b925060208a0199505060018101905061067e565b50829750879550505050505092915050565b600060208201905081810360008301526106e28184610653565b905092915050565b6000604051905090565b600080fd5b600080fd5b600080fd5b600080fd5b7f4e487b7100000000000000000000000000000000000000000000000000000000600052604160045260246000fd5b6107408261050a565b810181811067ffffffffffffffff8211171561075f5761075e610708565b5b80604052505050565b60006107726106ea565b905061077e8282610737565b919050565b600067ffffffffffffffff82111561079e5761079d610708565b5b6107a78261050a565b9050602081019050919050565b82818337600083830152505050565b60006107d66107d184610783565b610768565b9050828152602081018484840111156107f2576107f1610703565b5b6107fd8482856107b4565b509392505050565b600082601f83011261081a576108196106fe565b5b813561082a8482602086016107c3565b91505092915050565b60008060006060848603121561084c5761084b6106f4565b5b600084013567ffffffffffffffff81111561086a576108696106f9565b5b61087686828701610805565b935050602084013567ffffffffffffffff811115610897576108966106f9565b5b6108a386828701610805565b925050604084013567ffffffffffffffff8111156108c4576108c36106f9565b5b6108d086828701610805565b9150509250925092565b7f4e487b7100000000000000000000000000000000000000000000000000000000600052602260045260246000fd5b6000600282049050600182168061092157607f821691505b602082108103610934576109336108da565b5b50919050565b600082825260208201905092915050565b7f506c65617365207061792067726561746572207468616e203020657468657200600082015250565b6000610981601f8361093a565b915061098c8261094b565b602082019050919050565b600060208201905081810360008301526109b081610974565b9050919050565b60008190508160005260206000209050919050565b60006020601f8301049050919050565b600082821b905092915050565b600060088302610a197fffffffffffffffffffffffffffffffffffffffffffffffffffffffffffffffff826109dc565b610a2386836109dc565b95508019841693508086168417925050509392505050565b6000819050919050565b6000610a60610a5b610a5684610554565b610a3b565b610554565b9050919050565b6000819050919050565b610a7a83610a45565b610a8e610a8682610a67565b8484546109e9565b825550505050565b600090565b610aa3610a96565b610aae818484610a71565b505050565b5b81811015610ad257610ac7600082610a9b565b600181019050610ab4565b5050565b601f821115610b1757610ae8816109b7565b610af1846109cc565b81016020851015610b00578190505b610b14610b0c856109cc565b830182610ab3565b50505b505050565b600082821c905092915050565b6000610b3a60001984600802610b1c565b1980831691505092915050565b6000610b538383610b29565b9150826002028217905092915050565b610b6c826104c4565b67ffffffffffffffff811115610b8557610b84610708565b5b610b8f8254610909565b610b9a828285610ad6565b600060209050601f831160018114610bcd5760008415610bbb578287015190505b610bc58582610b47565b865550610c2d565b601f198416610bdb866109b7565b60005b82811015610c0357848901518255600182019150602085019450602081019050610bde565b86831015610c205784890151610c1c601f891682610b29565b8355505b6001600288020188555050505b50505050505056fea26469706673582212200afba057d3fbc1297725439aea8ded625617f8a184cc5dd3ca2ed8f4a37b760064736f6c63430008110033",
  "linkReferences": {},
  "deployedLinkReferences": {}
}